{
	"smartcontract/faucet.sol": {
		"Faucet": {
			"abi": [
				{
					"inputs": [
						{
							"internalType": "address",
							"name": "_tokenInstance",
							"type": "address"
						}
					],
					"payable": false,
					"stateMutability": "nonpayable",
					"type": "constructor"
				},
				{
					"constant": true,
					"inputs": [
						{
							"internalType": "address",
							"name": "_address",
							"type": "address"
						}
					],
					"name": "allowedToWithdraw",
					"outputs": [
						{
							"internalType": "bool",
							"name": "",
							"type": "bool"
						}
					],
					"payable": false,
					"stateMutability": "view",
					"type": "function"
				},
				{
					"constant": false,
					"inputs": [],
					"name": "requestTokens",
					"outputs": [],
					"payable": false,
					"stateMutability": "nonpayable",
					"type": "function"
				},
				{
					"constant": true,
					"inputs": [],
					"name": "tokenAmount",
					"outputs": [
						{
							"internalType": "uint256",
							"name": "",
							"type": "uint256"
						}
					],
					"payable": false,
					"stateMutability": "view",
					"type": "function"
				},
				{
					"constant": true,
					"inputs": [],
					"name": "tokenInstance",
					"outputs": [
						{
							"internalType": "contract ERC20",
							"name": "",
							"type": "address"
						}
					],
					"payable": false,
					"stateMutability": "view",
					"type": "function"
				},
				{
					"constant": true,
					"inputs": [],
					"name": "waitTime",
					"outputs": [
						{
							"internalType": "uint256",
							"name": "",
							"type": "uint256"
						}
					],
					"payable": false,
					"stateMutability": "view",
					"type": "function"
				}
			],
			"devdoc": {
				"methods": {}
			},
			"evm": {
				"assembly": "    /* \"smartcontract/faucet.sol\":204:1097  contract Faucet {\r... */\n  mstore(0x40, 0x80)\n    /* \"smartcontract/faucet.sol\":441:588  constructor(address _tokenInstance) public {\r... */\n  callvalue\n    /* \"--CODEGEN--\":8:17   */\n  dup1\n    /* \"--CODEGEN--\":5:7   */\n  iszero\n  tag_1\n  jumpi\n    /* \"--CODEGEN--\":30:31   */\n  0x00\n    /* \"--CODEGEN--\":27:28   */\n  dup1\n    /* \"--CODEGEN--\":20:32   */\n  revert\n    /* \"--CODEGEN--\":5:7   */\ntag_1:\n    /* \"smartcontract/faucet.sol\":441:588  constructor(address _tokenInstance) public {\r... */\n  pop\n  mload(0x40)\n  sub(codesize, bytecodeSize)\n  dup1\n  bytecodeSize\n  dup4\n  codecopy\n  dup2\n  dup2\n  add\n  0x40\n  mstore\n    /* \"--CODEGEN--\":13:15   */\n  0x20\n    /* \"--CODEGEN--\":8:11   */\n  dup2\n    /* \"--CODEGEN--\":5:16   */\n  lt\n    /* \"--CODEGEN--\":2:4   */\n  iszero\n  tag_2\n  jumpi\n    /* \"--CODEGEN--\":29:30   */\n  0x00\n    /* \"--CODEGEN--\":26:27   */\n  dup1\n    /* \"--CODEGEN--\":19:31   */\n  revert\n    /* \"--CODEGEN--\":2:4   */\ntag_2:\n    /* \"smartcontract/faucet.sol\":441:588  constructor(address _tokenInstance) public {\r... */\n  dup2\n  add\n  swap1\n  dup1\n  dup1\n  mload\n  swap1\n  0x20\n  add\n  swap1\n  swap3\n  swap2\n  swap1\n  pop\n  pop\n  pop\n    /* \"smartcontract/faucet.sol\":529:530  0 */\n  0x00\n    /* \"smartcontract/faucet.sol\":503:531  _tokenInstance != address(0) */\n  0xffffffffffffffffffffffffffffffffffffffff\n  and\n    /* \"smartcontract/faucet.sol\":503:517  _tokenInstance */\n  dup2\n    /* \"smartcontract/faucet.sol\":503:531  _tokenInstance != address(0) */\n  0xffffffffffffffffffffffffffffffffffffffff\n  and\n  eq\n  iszero\n    /* \"smartcontract/faucet.sol\":495:532  require(_tokenInstance != address(0)) */\n  tag_5\n  jumpi\n  0x00\n  dup1\n  revert\ntag_5:\n    /* \"smartcontract/faucet.sol\":565:579  _tokenInstance */\n  dup1\n    /* \"smartcontract/faucet.sol\":543:556  tokenInstance */\n  0x00\n  dup1\n    /* \"smartcontract/faucet.sol\":543:580  tokenInstance = ERC20(_tokenInstance) */\n  0x0100\n  exp\n  dup2\n  sload\n  dup2\n  0xffffffffffffffffffffffffffffffffffffffff\n  mul\n  not\n  and\n  swap1\n  dup4\n  0xffffffffffffffffffffffffffffffffffffffff\n  and\n  mul\n  or\n  swap1\n  sstore\n  pop\n    /* \"smartcontract/faucet.sol\":441:588  constructor(address _tokenInstance) public {\r... */\n  pop\n    /* \"smartcontract/faucet.sol\":204:1097  contract Faucet {\r... */\n  dataSize(sub_0)\n  dup1\n  dataOffset(sub_0)\n  0x00\n  codecopy\n  0x00\n  return\nstop\n\nsub_0: assembly {\n        /* \"smartcontract/faucet.sol\":204:1097  contract Faucet {\r... */\n      mstore(0x40, 0x80)\n      callvalue\n        /* \"--CODEGEN--\":8:17   */\n      dup1\n        /* \"--CODEGEN--\":5:7   */\n      iszero\n      tag_1\n      jumpi\n        /* \"--CODEGEN--\":30:31   */\n      0x00\n        /* \"--CODEGEN--\":27:28   */\n      dup1\n        /* \"--CODEGEN--\":20:32   */\n      revert\n        /* \"--CODEGEN--\":5:7   */\n    tag_1:\n        /* \"smartcontract/faucet.sol\":204:1097  contract Faucet {\r... */\n      pop\n      jumpi(tag_2, lt(calldatasize, 0x04))\n      shr(0xe0, calldataload(0x00))\n      dup1\n      0x2d291cad\n      eq\n      tag_3\n      jumpi\n      dup1\n      0x359cf2b7\n      eq\n      tag_4\n      jumpi\n      dup1\n      0x658030b3\n      eq\n      tag_5\n      jumpi\n      dup1\n      0xccca123b\n      eq\n      tag_6\n      jumpi\n      dup1\n      0xeec7faa1\n      eq\n      tag_7\n      jumpi\n    tag_2:\n      0x00\n      dup1\n      revert\n        /* \"smartcontract/faucet.sol\":817:1094  function allowedToWithdraw(address _address) public view returns (bool) {\r... */\n    tag_3:\n      tag_8\n      0x04\n      dup1\n      calldatasize\n      sub\n        /* \"--CODEGEN--\":13:15   */\n      0x20\n        /* \"--CODEGEN--\":8:11   */\n      dup2\n        /* \"--CODEGEN--\":5:16   */\n      lt\n        /* \"--CODEGEN--\":2:4   */\n      iszero\n      tag_9\n      jumpi\n        /* \"--CODEGEN--\":29:30   */\n      0x00\n        /* \"--CODEGEN--\":26:27   */\n      dup1\n        /* \"--CODEGEN--\":19:31   */\n      revert\n        /* \"--CODEGEN--\":2:4   */\n    tag_9:\n        /* \"smartcontract/faucet.sol\":817:1094  function allowedToWithdraw(address _address) public view returns (bool) {\r... */\n      dup2\n      add\n      swap1\n      dup1\n      dup1\n      calldataload\n      0xffffffffffffffffffffffffffffffffffffffff\n      and\n      swap1\n      0x20\n      add\n      swap1\n      swap3\n      swap2\n      swap1\n      pop\n      pop\n      pop\n      tag_10\n      jump\t// in\n    tag_8:\n      mload(0x40)\n      dup1\n      dup3\n      iszero\n      iszero\n      iszero\n      iszero\n      dup2\n      mstore\n      0x20\n      add\n      swap2\n      pop\n      pop\n      mload(0x40)\n      dup1\n      swap2\n      sub\n      swap1\n      return\n        /* \"smartcontract/faucet.sol\":596:809  function requestTokens() public {\r... */\n    tag_4:\n      tag_11\n      tag_12\n      jump\t// in\n    tag_11:\n      stop\n        /* \"smartcontract/faucet.sol\":351:377  ERC20 public tokenInstance */\n    tag_5:\n      tag_13\n      tag_14\n      jump\t// in\n    tag_13:\n      mload(0x40)\n      dup1\n      dup3\n      0xffffffffffffffffffffffffffffffffffffffff\n      and\n      0xffffffffffffffffffffffffffffffffffffffff\n      and\n      dup2\n      mstore\n      0x20\n      add\n      swap2\n      pop\n      pop\n      mload(0x40)\n      dup1\n      swap2\n      sub\n      swap1\n      return\n        /* \"smartcontract/faucet.sol\":296:342  uint256 constant public waitTime = 120 minutes */\n    tag_6:\n      tag_15\n      tag_16\n      jump\t// in\n    tag_15:\n      mload(0x40)\n      dup1\n      dup3\n      dup2\n      mstore\n      0x20\n      add\n      swap2\n      pop\n      pop\n      mload(0x40)\n      dup1\n      swap2\n      sub\n      swap1\n      return\n        /* \"smartcontract/faucet.sol\":227:289  uint256 constant public tokenAmount = 100000000000000000000000 */\n    tag_7:\n      tag_17\n      tag_18\n      jump\t// in\n    tag_17:\n      mload(0x40)\n      dup1\n      dup3\n      dup2\n      mstore\n      0x20\n      add\n      swap2\n      pop\n      pop\n      mload(0x40)\n      dup1\n      swap2\n      sub\n      swap1\n      return\n        /* \"smartcontract/faucet.sol\":817:1094  function allowedToWithdraw(address _address) public view returns (bool) {\r... */\n    tag_10:\n        /* \"smartcontract/faucet.sol\":883:887  bool */\n      0x00\n        /* \"smartcontract/faucet.sol\":931:932  0 */\n      dup1\n        /* \"smartcontract/faucet.sol\":903:917  lastAccessTime */\n      0x01\n        /* \"smartcontract/faucet.sol\":903:927  lastAccessTime[_address] */\n      0x00\n        /* \"smartcontract/faucet.sol\":918:926  _address */\n      dup5\n        /* \"smartcontract/faucet.sol\":903:927  lastAccessTime[_address] */\n      0xffffffffffffffffffffffffffffffffffffffff\n      and\n      0xffffffffffffffffffffffffffffffffffffffff\n      and\n      dup2\n      mstore\n      0x20\n      add\n      swap1\n      dup2\n      mstore\n      0x20\n      add\n      0x00\n      keccak256\n      sload\n        /* \"smartcontract/faucet.sol\":903:932  lastAccessTime[_address] == 0 */\n      eq\n        /* \"smartcontract/faucet.sol\":900:1064  if(lastAccessTime[_address] == 0) {\r... */\n      iszero\n      tag_20\n      jumpi\n        /* \"smartcontract/faucet.sol\":956:960  true */\n      0x01\n        /* \"smartcontract/faucet.sol\":949:960  return true */\n      swap1\n      pop\n      jump(tag_19)\n        /* \"smartcontract/faucet.sol\":900:1064  if(lastAccessTime[_address] == 0) {\r... */\n    tag_20:\n        /* \"smartcontract/faucet.sol\":1000:1014  lastAccessTime */\n      0x01\n        /* \"smartcontract/faucet.sol\":1000:1024  lastAccessTime[_address] */\n      0x00\n        /* \"smartcontract/faucet.sol\":1015:1023  _address */\n      dup4\n        /* \"smartcontract/faucet.sol\":1000:1024  lastAccessTime[_address] */\n      0xffffffffffffffffffffffffffffffffffffffff\n      and\n      0xffffffffffffffffffffffffffffffffffffffff\n      and\n      dup2\n      mstore\n      0x20\n      add\n      swap1\n      dup2\n      mstore\n      0x20\n      add\n      0x00\n      keccak256\n      sload\n        /* \"smartcontract/faucet.sol\":981:996  block.timestamp */\n      timestamp\n        /* \"smartcontract/faucet.sol\":981:1024  block.timestamp >= lastAccessTime[_address] */\n      lt\n        /* \"smartcontract/faucet.sol\":978:1064  if(block.timestamp >= lastAccessTime[_address]) {\r... */\n      tag_22\n      jumpi\n        /* \"smartcontract/faucet.sol\":1048:1052  true */\n      0x01\n        /* \"smartcontract/faucet.sol\":1041:1052  return true */\n      swap1\n      pop\n      jump(tag_19)\n        /* \"smartcontract/faucet.sol\":978:1064  if(block.timestamp >= lastAccessTime[_address]) {\r... */\n    tag_22:\n        /* \"smartcontract/faucet.sol\":1081:1086  false */\n      0x00\n        /* \"smartcontract/faucet.sol\":1074:1086  return false */\n      swap1\n      pop\n        /* \"smartcontract/faucet.sol\":817:1094  function allowedToWithdraw(address _address) public view returns (bool) {\r... */\n    tag_19:\n      swap2\n      swap1\n      pop\n      jump\t// out\n        /* \"smartcontract/faucet.sol\":596:809  function requestTokens() public {\r... */\n    tag_12:\n        /* \"smartcontract/faucet.sol\":647:676  allowedToWithdraw(msg.sender) */\n      tag_24\n        /* \"smartcontract/faucet.sol\":665:675  msg.sender */\n      caller\n        /* \"smartcontract/faucet.sol\":647:664  allowedToWithdraw */\n      tag_10\n        /* \"smartcontract/faucet.sol\":647:676  allowedToWithdraw(msg.sender) */\n      jump\t// in\n    tag_24:\n        /* \"smartcontract/faucet.sol\":639:677  require(allowedToWithdraw(msg.sender)) */\n      tag_25\n      jumpi\n      0x00\n      dup1\n      revert\n    tag_25:\n        /* \"smartcontract/faucet.sol\":688:701  tokenInstance */\n      0x00\n      dup1\n      swap1\n      sload\n      swap1\n      0x0100\n      exp\n      swap1\n      div\n      0xffffffffffffffffffffffffffffffffffffffff\n      and\n        /* \"smartcontract/faucet.sol\":688:710  tokenInstance.transfer */\n      0xffffffffffffffffffffffffffffffffffffffff\n      and\n      0xa9059cbb\n        /* \"smartcontract/faucet.sol\":711:721  msg.sender */\n      caller\n        /* \"smartcontract/faucet.sol\":265:289  100000000000000000000000 */\n      0x152d02c7e14af6800000\n        /* \"smartcontract/faucet.sol\":688:735  tokenInstance.transfer(msg.sender, tokenAmount) */\n      mload(0x40)\n      dup4\n      0xffffffff\n      and\n      0xe0\n      shl\n      dup2\n      mstore\n      0x04\n      add\n      dup1\n      dup4\n      0xffffffffffffffffffffffffffffffffffffffff\n      and\n      0xffffffffffffffffffffffffffffffffffffffff\n      and\n      dup2\n      mstore\n      0x20\n      add\n      dup3\n      dup2\n      mstore\n      0x20\n      add\n      swap3\n      pop\n      pop\n      pop\n      0x20\n      mload(0x40)\n      dup1\n      dup4\n      sub\n      dup2\n      0x00\n      dup8\n      dup1\n      extcodesize\n      iszero\n        /* \"--CODEGEN--\":8:17   */\n      dup1\n        /* \"--CODEGEN--\":5:7   */\n      iszero\n      tag_26\n      jumpi\n        /* \"--CODEGEN--\":30:31   */\n      0x00\n        /* \"--CODEGEN--\":27:28   */\n      dup1\n        /* \"--CODEGEN--\":20:32   */\n      revert\n        /* \"--CODEGEN--\":5:7   */\n    tag_26:\n        /* \"smartcontract/faucet.sol\":688:735  tokenInstance.transfer(msg.sender, tokenAmount) */\n      pop\n      gas\n      call\n      iszero\n        /* \"--CODEGEN--\":8:17   */\n      dup1\n        /* \"--CODEGEN--\":5:7   */\n      iszero\n      tag_27\n      jumpi\n        /* \"--CODEGEN--\":45:61   */\n      returndatasize\n        /* \"--CODEGEN--\":42:43   */\n      0x00\n        /* \"--CODEGEN--\":39:40   */\n      dup1\n        /* \"--CODEGEN--\":24:62   */\n      returndatacopy\n        /* \"--CODEGEN--\":77:93   */\n      returndatasize\n        /* \"--CODEGEN--\":74:75   */\n      0x00\n        /* \"--CODEGEN--\":67:94   */\n      revert\n        /* \"--CODEGEN--\":5:7   */\n    tag_27:\n        /* \"smartcontract/faucet.sol\":688:735  tokenInstance.transfer(msg.sender, tokenAmount) */\n      pop\n      pop\n      pop\n      pop\n      mload(0x40)\n      returndatasize\n        /* \"--CODEGEN--\":13:15   */\n      0x20\n        /* \"--CODEGEN--\":8:11   */\n      dup2\n        /* \"--CODEGEN--\":5:16   */\n      lt\n        /* \"--CODEGEN--\":2:4   */\n      iszero\n      tag_28\n      jumpi\n        /* \"--CODEGEN--\":29:30   */\n      0x00\n        /* \"--CODEGEN--\":26:27   */\n      dup1\n        /* \"--CODEGEN--\":19:31   */\n      revert\n        /* \"--CODEGEN--\":2:4   */\n    tag_28:\n        /* \"smartcontract/faucet.sol\":688:735  tokenInstance.transfer(msg.sender, tokenAmount) */\n      dup2\n      add\n      swap1\n      dup1\n      dup1\n      mload\n      swap1\n      0x20\n      add\n      swap1\n      swap3\n      swap2\n      swap1\n      pop\n      pop\n      pop\n      pop\n        /* \"smartcontract/faucet.sol\":331:342  120 minutes */\n      0x1c20\n        /* \"smartcontract/faucet.sol\":775:790  block.timestamp */\n      timestamp\n        /* \"smartcontract/faucet.sol\":775:801  block.timestamp + waitTime */\n      add\n        /* \"smartcontract/faucet.sol\":746:760  lastAccessTime */\n      0x01\n        /* \"smartcontract/faucet.sol\":746:772  lastAccessTime[msg.sender] */\n      0x00\n        /* \"smartcontract/faucet.sol\":761:771  msg.sender */\n      caller\n        /* \"smartcontract/faucet.sol\":746:772  lastAccessTime[msg.sender] */\n      0xffffffffffffffffffffffffffffffffffffffff\n      and\n      0xffffffffffffffffffffffffffffffffffffffff\n      and\n      dup2\n      mstore\n      0x20\n      add\n      swap1\n      dup2\n      mstore\n      0x20\n      add\n      0x00\n      keccak256\n        /* \"smartcontract/faucet.sol\":746:801  lastAccessTime[msg.sender] = block.timestamp + waitTime */\n      dup2\n      swap1\n      sstore\n      pop\n        /* \"smartcontract/faucet.sol\":596:809  function requestTokens() public {\r... */\n      jump\t// out\n        /* \"smartcontract/faucet.sol\":351:377  ERC20 public tokenInstance */\n    tag_14:\n      0x00\n      dup1\n      swap1\n      sload\n      swap1\n      0x0100\n      exp\n      swap1\n      div\n      0xffffffffffffffffffffffffffffffffffffffff\n      and\n      dup2\n      jump\t// out\n        /* \"smartcontract/faucet.sol\":296:342  uint256 constant public waitTime = 120 minutes */\n    tag_16:\n        /* \"smartcontract/faucet.sol\":331:342  120 minutes */\n      0x1c20\n        /* \"smartcontract/faucet.sol\":296:342  uint256 constant public waitTime = 120 minutes */\n      dup2\n      jump\t// out\n        /* \"smartcontract/faucet.sol\":227:289  uint256 constant public tokenAmount = 100000000000000000000000 */\n    tag_18:\n        /* \"smartcontract/faucet.sol\":265:289  100000000000000000000000 */\n      0x152d02c7e14af6800000\n        /* \"smartcontract/faucet.sol\":227:289  uint256 constant public tokenAmount = 100000000000000000000000 */\n      dup2\n      jump\t// out\n\n    auxdata: 0xa265627a7a72315820e1997c2a660b7c9ff500a3353bdcd380bdd655378b397d0729f76b4f9dff9d6e64736f6c63430005110032\n}\n",
				"bytecode": {
					"linkReferences": {},
					"object": "608060405234801561001057600080fd5b506040516104793803806104798339818101604052602081101561003357600080fd5b8101908080519060200190929190505050600073ffffffffffffffffffffffffffffffffffffffff168173ffffffffffffffffffffffffffffffffffffffff16141561007e57600080fd5b806000806101000a81548173ffffffffffffffffffffffffffffffffffffffff021916908373ffffffffffffffffffffffffffffffffffffffff160217905550506103ab806100ce6000396000f3fe608060405234801561001057600080fd5b50600436106100575760003560e01c80632d291cad1461005c578063359cf2b7146100b8578063658030b3146100c2578063ccca123b1461010c578063eec7faa11461012a575b600080fd5b61009e6004803603602081101561007257600080fd5b81019080803573ffffffffffffffffffffffffffffffffffffffff169060200190929190505050610148565b604051808215151515815260200191505060405180910390f35b6100c06101f3565b005b6100ca61033d565b604051808273ffffffffffffffffffffffffffffffffffffffff1673ffffffffffffffffffffffffffffffffffffffff16815260200191505060405180910390f35b610114610362565b6040518082815260200191505060405180910390f35b610132610368565b6040518082815260200191505060405180910390f35b600080600160008473ffffffffffffffffffffffffffffffffffffffff1673ffffffffffffffffffffffffffffffffffffffff16815260200190815260200160002054141561019a57600190506101ee565b600160008373ffffffffffffffffffffffffffffffffffffffff1673ffffffffffffffffffffffffffffffffffffffff1681526020019081526020016000205442106101e957600190506101ee565b600090505b919050565b6101fc33610148565b61020557600080fd5b6000809054906101000a900473ffffffffffffffffffffffffffffffffffffffff1673ffffffffffffffffffffffffffffffffffffffff1663a9059cbb3369152d02c7e14af68000006040518363ffffffff1660e01b8152600401808373ffffffffffffffffffffffffffffffffffffffff1673ffffffffffffffffffffffffffffffffffffffff16815260200182815260200192505050602060405180830381600087803b1580156102b757600080fd5b505af11580156102cb573d6000803e3d6000fd5b505050506040513d60208110156102e157600080fd5b810190808051906020019092919050505050611c204201600160003373ffffffffffffffffffffffffffffffffffffffff1673ffffffffffffffffffffffffffffffffffffffff16815260200190815260200160002081905550565b6000809054906101000a900473ffffffffffffffffffffffffffffffffffffffff1681565b611c2081565b69152d02c7e14af68000008156fea265627a7a72315820e1997c2a660b7c9ff500a3353bdcd380bdd655378b397d0729f76b4f9dff9d6e64736f6c63430005110032",
					"opcodes": "PUSH1 0x80 PUSH1 0x40 MSTORE CALLVALUE DUP1 ISZERO PUSH2 0x10 JUMPI PUSH1 0x0 DUP1 REVERT JUMPDEST POP PUSH1 0x40 MLOAD PUSH2 0x479 CODESIZE SUB DUP1 PUSH2 0x479 DUP4 CODECOPY DUP2 DUP2 ADD PUSH1 0x40 MSTORE PUSH1 0x20 DUP2 LT ISZERO PUSH2 0x33 JUMPI PUSH1 0x0 DUP1 REVERT JUMPDEST DUP2 ADD SWAP1 DUP1 DUP1 MLOAD SWAP1 PUSH1 0x20 ADD SWAP1 SWAP3 SWAP2 SWAP1 POP POP POP PUSH1 0x0 PUSH20 0xFFFFFFFFFFFFFFFFFFFFFFFFFFFFFFFFFFFFFFFF AND DUP2 PUSH20 0xFFFFFFFFFFFFFFFFFFFFFFFFFFFFFFFFFFFFFFFF AND EQ ISZERO PUSH2 0x7E JUMPI PUSH1 0x0 DUP1 REVERT JUMPDEST DUP1 PUSH1 0x0 DUP1 PUSH2 0x100 EXP DUP2 SLOAD DUP2 PUSH20 0xFFFFFFFFFFFFFFFFFFFFFFFFFFFFFFFFFFFFFFFF MUL NOT AND SWAP1 DUP4 PUSH20 0xFFFFFFFFFFFFFFFFFFFFFFFFFFFFFFFFFFFFFFFF AND MUL OR SWAP1 SSTORE POP POP PUSH2 0x3AB DUP1 PUSH2 0xCE PUSH1 0x0 CODECOPY PUSH1 0x0 RETURN INVALID PUSH1 0x80 PUSH1 0x40 MSTORE CALLVALUE DUP1 ISZERO PUSH2 0x10 JUMPI PUSH1 0x0 DUP1 REVERT JUMPDEST POP PUSH1 0x4 CALLDATASIZE LT PUSH2 0x57 JUMPI PUSH1 0x0 CALLDATALOAD PUSH1 0xE0 SHR DUP1 PUSH4 0x2D291CAD EQ PUSH2 0x5C JUMPI DUP1 PUSH4 0x359CF2B7 EQ PUSH2 0xB8 JUMPI DUP1 PUSH4 0x658030B3 EQ PUSH2 0xC2 JUMPI DUP1 PUSH4 0xCCCA123B EQ PUSH2 0x10C JUMPI DUP1 PUSH4 0xEEC7FAA1 EQ PUSH2 0x12A JUMPI JUMPDEST PUSH1 0x0 DUP1 REVERT JUMPDEST PUSH2 0x9E PUSH1 0x4 DUP1 CALLDATASIZE SUB PUSH1 0x20 DUP2 LT ISZERO PUSH2 0x72 JUMPI PUSH1 0x0 DUP1 REVERT JUMPDEST DUP2 ADD SWAP1 DUP1 DUP1 CALLDATALOAD PUSH20 0xFFFFFFFFFFFFFFFFFFFFFFFFFFFFFFFFFFFFFFFF AND SWAP1 PUSH1 0x20 ADD SWAP1 SWAP3 SWAP2 SWAP1 POP POP POP PUSH2 0x148 JUMP JUMPDEST PUSH1 0x40 MLOAD DUP1 DUP3 ISZERO ISZERO ISZERO ISZERO DUP2 MSTORE PUSH1 0x20 ADD SWAP2 POP POP PUSH1 0x40 MLOAD DUP1 SWAP2 SUB SWAP1 RETURN JUMPDEST PUSH2 0xC0 PUSH2 0x1F3 JUMP JUMPDEST STOP JUMPDEST PUSH2 0xCA PUSH2 0x33D JUMP JUMPDEST PUSH1 0x40 MLOAD DUP1 DUP3 PUSH20 0xFFFFFFFFFFFFFFFFFFFFFFFFFFFFFFFFFFFFFFFF AND PUSH20 0xFFFFFFFFFFFFFFFFFFFFFFFFFFFFFFFFFFFFFFFF AND DUP2 MSTORE PUSH1 0x20 ADD SWAP2 POP POP PUSH1 0x40 MLOAD DUP1 SWAP2 SUB SWAP1 RETURN JUMPDEST PUSH2 0x114 PUSH2 0x362 JUMP JUMPDEST PUSH1 0x40 MLOAD DUP1 DUP3 DUP2 MSTORE PUSH1 0x20 ADD SWAP2 POP POP PUSH1 0x40 MLOAD DUP1 SWAP2 SUB SWAP1 RETURN JUMPDEST PUSH2 0x132 PUSH2 0x368 JUMP JUMPDEST PUSH1 0x40 MLOAD DUP1 DUP3 DUP2 MSTORE PUSH1 0x20 ADD SWAP2 POP POP PUSH1 0x40 MLOAD DUP1 SWAP2 SUB SWAP1 RETURN JUMPDEST PUSH1 0x0 DUP1 PUSH1 0x1 PUSH1 0x0 DUP5 PUSH20 0xFFFFFFFFFFFFFFFFFFFFFFFFFFFFFFFFFFFFFFFF AND PUSH20 0xFFFFFFFFFFFFFFFFFFFFFFFFFFFFFFFFFFFFFFFF AND DUP2 MSTORE PUSH1 0x20 ADD SWAP1 DUP2 MSTORE PUSH1 0x20 ADD PUSH1 0x0 KECCAK256 SLOAD EQ ISZERO PUSH2 0x19A JUMPI PUSH1 0x1 SWAP1 POP PUSH2 0x1EE JUMP JUMPDEST PUSH1 0x1 PUSH1 0x0 DUP4 PUSH20 0xFFFFFFFFFFFFFFFFFFFFFFFFFFFFFFFFFFFFFFFF AND PUSH20 0xFFFFFFFFFFFFFFFFFFFFFFFFFFFFFFFFFFFFFFFF AND DUP2 MSTORE PUSH1 0x20 ADD SWAP1 DUP2 MSTORE PUSH1 0x20 ADD PUSH1 0x0 KECCAK256 SLOAD TIMESTAMP LT PUSH2 0x1E9 JUMPI PUSH1 0x1 SWAP1 POP PUSH2 0x1EE JUMP JUMPDEST PUSH1 0x0 SWAP1 POP JUMPDEST SWAP2 SWAP1 POP JUMP JUMPDEST PUSH2 0x1FC CALLER PUSH2 0x148 JUMP JUMPDEST PUSH2 0x205 JUMPI PUSH1 0x0 DUP1 REVERT JUMPDEST PUSH1 0x0 DUP1 SWAP1 SLOAD SWAP1 PUSH2 0x100 EXP SWAP1 DIV PUSH20 0xFFFFFFFFFFFFFFFFFFFFFFFFFFFFFFFFFFFFFFFF AND PUSH20 0xFFFFFFFFFFFFFFFFFFFFFFFFFFFFFFFFFFFFFFFF AND PUSH4 0xA9059CBB CALLER PUSH10 0x152D02C7E14AF6800000 PUSH1 0x40 MLOAD DUP4 PUSH4 0xFFFFFFFF AND PUSH1 0xE0 SHL DUP2 MSTORE PUSH1 0x4 ADD DUP1 DUP4 PUSH20 0xFFFFFFFFFFFFFFFFFFFFFFFFFFFFFFFFFFFFFFFF AND PUSH20 0xFFFFFFFFFFFFFFFFFFFFFFFFFFFFFFFFFFFFFFFF AND DUP2 MSTORE PUSH1 0x20 ADD DUP3 DUP2 MSTORE PUSH1 0x20 ADD SWAP3 POP POP POP PUSH1 0x20 PUSH1 0x40 MLOAD DUP1 DUP4 SUB DUP2 PUSH1 0x0 DUP8 DUP1 EXTCODESIZE ISZERO DUP1 ISZERO PUSH2 0x2B7 JUMPI PUSH1 0x0 DUP1 REVERT JUMPDEST POP GAS CALL ISZERO DUP1 ISZERO PUSH2 0x2CB JUMPI RETURNDATASIZE PUSH1 0x0 DUP1 RETURNDATACOPY RETURNDATASIZE PUSH1 0x0 REVERT JUMPDEST POP POP POP POP PUSH1 0x40 MLOAD RETURNDATASIZE PUSH1 0x20 DUP2 LT ISZERO PUSH2 0x2E1 JUMPI PUSH1 0x0 DUP1 REVERT JUMPDEST DUP2 ADD SWAP1 DUP1 DUP1 MLOAD SWAP1 PUSH1 0x20 ADD SWAP1 SWAP3 SWAP2 SWAP1 POP POP POP POP PUSH2 0x1C20 TIMESTAMP ADD PUSH1 0x1 PUSH1 0x0 CALLER PUSH20 0xFFFFFFFFFFFFFFFFFFFFFFFFFFFFFFFFFFFFFFFF AND PUSH20 0xFFFFFFFFFFFFFFFFFFFFFFFFFFFFFFFFFFFFFFFF AND DUP2 MSTORE PUSH1 0x20 ADD SWAP1 DUP2 MSTORE PUSH1 0x20 ADD PUSH1 0x0 KECCAK256 DUP2 SWAP1 SSTORE POP JUMP JUMPDEST PUSH1 0x0 DUP1 SWAP1 SLOAD SWAP1 PUSH2 0x100 EXP SWAP1 DIV PUSH20 0xFFFFFFFFFFFFFFFFFFFFFFFFFFFFFFFFFFFFFFFF AND DUP2 JUMP JUMPDEST PUSH2 0x1C20 DUP2 JUMP JUMPDEST PUSH10 0x152D02C7E14AF6800000 DUP2 JUMP INVALID LOG2 PUSH6 0x627A7A723158 KECCAK256 0xE1 SWAP10 PUSH29 0x2A660B7C9FF500A3353BDCD380BDD655378B397D0729F76B4F9DFF9D6E PUSH5 0x736F6C6343 STOP SDIV GT STOP ORIGIN "
				},
				"gasEstimates": {
					"creation": {
						"codeDepositCost": "187800",
						"executionCost": "infinite",
						"totalCost": "infinite"
					},
					"external": {
						"allowedToWithdraw(address)": "2135",
						"requestTokens()": "infinite",
						"tokenAmount()": "271",
						"tokenInstance()": "1075",
						"waitTime()": "249"
					}
				},
				"methodIdentifiers": {
					"allowedToWithdraw(address)": "2d291cad",
					"requestTokens()": "359cf2b7",
					"tokenAmount()": "eec7faa1",
					"tokenInstance()": "658030b3",
					"waitTime()": "ccca123b"
				}
			},
			"storageLayout": {
				"storage": [
					{
						"astId": 27,
						"contract": "smartcontract/faucet.sol:Faucet",
						"label": "tokenInstance",
						"offset": 0,
						"slot": "0",
						"type": "t_contract(ERC20)19"
					},
					{
						"astId": 31,
						"contract": "smartcontract/faucet.sol:Faucet",
						"label": "lastAccessTime",
						"offset": 0,
						"slot": "1",
						"type": "t_mapping(t_address,t_uint256)"
					}
				],
				"types": {
					"t_address": {
						"encoding": "inplace",
						"label": "address",
						"numberOfBytes": "20"
					},
					"t_contract(ERC20)19": {
						"encoding": "inplace",
						"label": "contract ERC20",
						"numberOfBytes": "20"
					},
					"t_mapping(t_address,t_uint256)": {
						"encoding": "mapping",
						"key": "t_address",
						"label": "mapping(address => uint256)",
						"numberOfBytes": "32",
						"value": "t_uint256"
					},
					"t_uint256": {
						"encoding": "inplace",
						"label": "uint256",
						"numberOfBytes": "32"
					}
				}
			},
			"userdoc": {
				"methods": {}
			}
		}
	}
}